:020000020000FC
:100000009ED10BE007BB0FE801BB8C98949A00E4EB
:1000100007B906E806B902E00ABBD99A43D142D132
:1000200041D118E318D153D118E315D157D118E3B2
:1000300012D154D11EE00FD151D111E00CD140D1D9
:1000400002E605BD7CED73BD02E603BF7CED7CBF1F
:1000500090E0A0E09098919A929A939892D098D03C
:10006000A1D0A7FD4FC048D14CD153D1632F51D15E
:1000700050D1032F4ED14DD1AFD00AD10F3018F04F
:10008000093188F420C09098919A0A3018F00D3008
:1000900020F006C07AEF73BD1BC07CED73BD18C0A5
:1000A00074EB73BD15C0909A91980E3118F40C3111
:1000B00020F406C07AEF73BD0BC07CED73BD08C0A1
:1000C00074EB73BD05C09098919870E073BD00C04B
:1000D000849909C06C3388F0603550F0929A9398F7
:1000E0007AEF7CBFBBCF929A93987FEF7CBFB6CF5D
:1000F000929A939878EC7CBFB1CF929A939876E9D4
:100100007CBFACCFA4D023E4ADD025E5ABD022E5B5
:10011000A9D022E5A7D025E4A5D02EE4A3D024E5DC
:10012000A1D020E29FD02FE49DD026E59BD025E4EE
:1001300099D022E597D02CE495D02FE493D021E4F8
:1001400091D024E48FD010EC86D023E58BD020E52D
:1001500089D025E487D025E485D024E483D020E22B
:1001600081D022E57FD025E47DD024E47BD025E535
:1001700079D023E477D025E475D024E473D088D0F7
:100180006DCF06EC06B93699FECF84B105B108955E
:10019000863420F4813420F4A0E00895A3E008958B
:1001A000A2E00895A33029F0A23019F090E0AF77D3
:1001B00008959395933020F004D0A06890E00895BE
:1001C000089573B5703538F0705573BD7CB77035D0
:1001D00010F070557CBF08953AD024E543D069D023
:1001E0002DE340D066D0302F44D063D02FED3AD0ED
:1001F00060D023E437D05DD020E234D05AD00F3025
:1002000048F0093170F423E52DD024E52BD022E409
:1002100029D00DC028E426D024E524D027E422D01C
:1002200006C023E41FD02CE41DD027E41BD010EC23
:1002300012D03FD028E416D03CD02DE313D039D0D3
:10024000362F17D036D025E20DD033D0089511E0E7
:1002500002D028D0089515BBC098C19A46D0C19845
:1002600036D0089525BBC09AC19A3FD0C1982FD0EF
:10027000089550E03A3018F03A505395FBCF20E300
:10028000250FF0DF16D020E3230FECDF12D0089506
:1002900064E174E688EC8A95F1F77A95D9F76A9566
:1002A000C1F7089588EC9AEF9A95F1F78A95D9F7F6
:1002B000089584E69AEF9A95F1F78A95D9F708950B
:1002C00084E69AEF9A95F1F78A95D9F7089588E22E
:1002D0009AEF9A95F1F78A95D9F7089584E19AEF04
:1002E0009A95F1F78A95D9F708958AE09AEF9A9549
:1002F000F1F78A95D9F70895D29ADA98E8DFDA9A71
:100300000895D298CA99FECFCA9BFECFCA99FECF54
:100310000895332748E0CA99FECFCA9BFECF0BD081
:10032000CA9902C0330F02C0330F3160CA99FECFA1
:100330004A9589F708959AE09A95F1F70895E19919
:10034000FECF00E00FBB0EBBE09A1DB313951DBBA3
:1003500000E00FBB0EBBE29AE19AE199FECF08954F
:00000001FF
